{
  "contractName": "Voting",
  "abi": [
    {
      "inputs": [
        {
          "internalType": "string[]",
          "name": "candidateNames",
          "type": "string[]"
        }
      ],
      "stateMutability": "nonpayable",
      "type": "constructor"
    },
    {
      "anonymous": false,
      "inputs": [
        {
          "indexed": false,
          "internalType": "address",
          "name": "voter",
          "type": "address"
        },
        {
          "indexed": false,
          "internalType": "uint256",
          "name": "candidateId",
          "type": "uint256"
        }
      ],
      "name": "VoteCast",
      "type": "event"
    },
    {
      "anonymous": false,
      "inputs": [
        {
          "indexed": false,
          "internalType": "address",
          "name": "voter",
          "type": "address"
        }
      ],
      "name": "VoterRegistered",
      "type": "event"
    },
    {
      "inputs": [],
      "name": "admin",
      "outputs": [
        {
          "internalType": "address",
          "name": "",
          "type": "address"
        }
      ],
      "stateMutability": "view",
      "type": "function",
      "constant": true
    },
    {
      "inputs": [
        {
          "internalType": "uint256",
          "name": "",
          "type": "uint256"
        }
      ],
      "name": "candidates",
      "outputs": [
        {
          "internalType": "uint256",
          "name": "id",
          "type": "uint256"
        },
        {
          "internalType": "string",
          "name": "name",
          "type": "string"
        },
        {
          "internalType": "uint256",
          "name": "voteCount",
          "type": "uint256"
        }
      ],
      "stateMutability": "view",
      "type": "function",
      "constant": true
    },
    {
      "inputs": [
        {
          "internalType": "address",
          "name": "",
          "type": "address"
        }
      ],
      "name": "voters",
      "outputs": [
        {
          "internalType": "bool",
          "name": "voted",
          "type": "bool"
        },
        {
          "internalType": "uint256",
          "name": "vote",
          "type": "uint256"
        },
        {
          "internalType": "bool",
          "name": "isRegistered",
          "type": "bool"
        }
      ],
      "stateMutability": "view",
      "type": "function",
      "constant": true
    },
    {
      "inputs": [],
      "name": "votingStarted",
      "outputs": [
        {
          "internalType": "bool",
          "name": "",
          "type": "bool"
        }
      ],
      "stateMutability": "view",
      "type": "function",
      "constant": true
    },
    {
      "inputs": [
        {
          "internalType": "address",
          "name": "voter",
          "type": "address"
        }
      ],
      "name": "registerVoter",
      "outputs": [],
      "stateMutability": "nonpayable",
      "type": "function"
    },
    {
      "inputs": [],
      "name": "startVoting",
      "outputs": [],
      "stateMutability": "nonpayable",
      "type": "function"
    },
    {
      "inputs": [],
      "name": "endVoting",
      "outputs": [],
      "stateMutability": "nonpayable",
      "type": "function"
    },
    {
      "inputs": [
        {
          "internalType": "uint256",
          "name": "candidateId",
          "type": "uint256"
        }
      ],
      "name": "vote",
      "outputs": [],
      "stateMutability": "nonpayable",
      "type": "function"
    },
    {
      "inputs": [],
      "name": "getCandidates",
      "outputs": [
        {
          "components": [
            {
              "internalType": "uint256",
              "name": "id",
              "type": "uint256"
            },
            {
              "internalType": "string",
              "name": "name",
              "type": "string"
            },
            {
              "internalType": "uint256",
              "name": "voteCount",
              "type": "uint256"
            }
          ],
          "internalType": "struct Voting.Candidate[]",
          "name": "",
          "type": "tuple[]"
        }
      ],
      "stateMutability": "view",
      "type": "function",
      "constant": true
    },
    {
      "inputs": [
        {
          "internalType": "address",
          "name": "voter",
          "type": "address"
        }
      ],
      "name": "getVoter",
      "outputs": [
        {
          "components": [
            {
              "internalType": "bool",
              "name": "voted",
              "type": "bool"
            },
            {
              "internalType": "uint256",
              "name": "vote",
              "type": "uint256"
            },
            {
              "internalType": "bool",
              "name": "isRegistered",
              "type": "bool"
            }
          ],
          "internalType": "struct Voting.Voter",
          "name": "",
          "type": "tuple"
        }
      ],
      "stateMutability": "view",
      "type": "function",
      "constant": true
    }
  ],
  "bytecode": "0x60806040523480156200001157600080fd5b506040516200178938038062001789833981810160405281019062000037919062000313565b336000806101000a81548173ffffffffffffffffffffffffffffffffffffffff021916908373ffffffffffffffffffffffffffffffffffffffff16021790555060005b8151811015620001575760026040518060600160405280838152602001848481518110620000d1577f4e487b7100000000000000000000000000000000000000000000000000000000600052603260045260246000fd5b6020026020010151815260200160008152509080600181540180825580915050600190039060005260206000209060030201600090919091909150600082015181600001556020820151816001019080519060200190620001349291906200015f565b5060408201518160020155505080806200014e9062000464565b9150506200007a565b50506200053f565b8280546200016d906200042e565b90600052602060002090601f016020900481019282620001915760008555620001dd565b82601f10620001ac57805160ff1916838001178555620001dd565b82800160010185558215620001dd579182015b82811115620001dc578251825591602001919060010190620001bf565b5b509050620001ec9190620001f0565b5090565b5b808211156200020b576000816000905550600101620001f1565b5090565b60006200022662000220846200038c565b62000358565b9050808382526020820190508260005b858110156200026a57815185016200024f8882620002e6565b84526020840193506020830192505060018101905062000236565b5050509392505050565b60006200028b6200028584620003bb565b62000358565b905082815260208101848484011115620002a457600080fd5b620002b1848285620003f8565b509392505050565b600082601f830112620002cb57600080fd5b8151620002dd8482602086016200020f565b91505092915050565b600082601f830112620002f857600080fd5b81516200030a84826020860162000274565b91505092915050565b6000602082840312156200032657600080fd5b600082015167ffffffffffffffff8111156200034157600080fd5b6200034f84828501620002b9565b91505092915050565b6000604051905081810181811067ffffffffffffffff8211171562000382576200038162000510565b5b8060405250919050565b600067ffffffffffffffff821115620003aa57620003a962000510565b5b602082029050602081019050919050565b600067ffffffffffffffff821115620003d957620003d862000510565b5b601f19601f8301169050602081019050919050565b6000819050919050565b60005b8381101562000418578082015181840152602081019050620003fb565b8381111562000428576000848401525b50505050565b600060028204905060018216806200044757607f821691505b602082108114156200045e576200045d620004e1565b5b50919050565b60006200047182620003ee565b91507fffffffffffffffffffffffffffffffffffffffffffffffffffffffffffffffff821415620004a757620004a6620004b2565b5b600182019050919050565b7f4e487b7100000000000000000000000000000000000000000000000000000000600052601160045260246000fd5b7f4e487b7100000000000000000000000000000000000000000000000000000000600052602260045260246000fd5b7f4e487b7100000000000000000000000000000000000000000000000000000000600052604160045260246000fd5b61123a806200054f6000396000f3fe608060405234801561001057600080fd5b506004361061009e5760003560e01c806383d948b71161006657806383d948b714610135578063a3ec138d14610153578063c3403ddf14610185578063d4f50f981461018f578063f851a440146101bf5761009e565b80630121b93f146100a357806306a49fce146100bf5780631ec6b60a146100dd5780633477ee2e146100e757806338db6dd314610119575b600080fd5b6100bd60048036038101906100b89190610ae6565b6101dd565b005b6100c761048b565b6040516100d49190610e91565b60405180910390f35b6100e5610590565b005b61010160048036038101906100fc9190610ae6565b61063b565b60405161011093929190610fc0565b60405180910390f35b610133600480360381019061012e9190610abd565b6106fd565b005b61013d6108af565b60405161014a9190610eb3565b60405180910390f35b61016d60048036038101906101689190610abd565b6108c2565b60405161017c93929190610ece565b60405180910390f35b61018d610906565b005b6101a960048036038101906101a49190610abd565b6109b1565b6040516101b69190610fa5565b60405180910390f35b6101c7610a4a565b6040516101d49190610e4d565b60405180910390f35b600160003373ffffffffffffffffffffffffffffffffffffffff1673ffffffffffffffffffffffffffffffffffffffff16815260200190815260200160002060020160009054906101000a900460ff1661026c576040517f08c379a000000000000000000000000000000000000000000000000000000000815260040161026390610f45565b60405180910390fd5b600160003373ffffffffffffffffffffffffffffffffffffffff1673ffffffffffffffffffffffffffffffffffffffff16815260200190815260200160002060000160009054906101000a900460ff16156102fc576040517f08c379a00000000000000000000000000000000000000000000000000000000081526004016102f390610f85565b60405180910390fd5b600360009054906101000a900460ff1661034b576040517f08c379a000000000000000000000000000000000000000000000000000000000815260040161034290610f05565b60405180910390fd5b60018060003373ffffffffffffffffffffffffffffffffffffffff1673ffffffffffffffffffffffffffffffffffffffff16815260200190815260200160002060000160006101000a81548160ff02191690831515021790555080600160003373ffffffffffffffffffffffffffffffffffffffff1673ffffffffffffffffffffffffffffffffffffffff16815260200190815260200160002060010181905550600160028281548110610428577f4e487b7100000000000000000000000000000000000000000000000000000000600052603260045260246000fd5b906000526020600020906003020160020160008282546104489190611064565b925050819055507fa36cc2bebb74db33e9f88110a07ef56e1b31b24b4c4f51b54b1664266e29f45b3382604051610480929190610e68565b60405180910390a150565b60606002805480602002602001604051908101604052809291908181526020016000905b828210156105875783829060005260206000209060030201604051806060016040529081600082015481526020016001820180546104ec90611135565b80601f016020809104026020016040519081016040528092919081815260200182805461051890611135565b80156105655780601f1061053a57610100808354040283529160200191610565565b820191906000526020600020905b81548152906001019060200180831161054857829003601f168201915b50505050508152602001600282015481525050815260200190600101906104af565b50505050905090565b60008054906101000a900473ffffffffffffffffffffffffffffffffffffffff1673ffffffffffffffffffffffffffffffffffffffff163373ffffffffffffffffffffffffffffffffffffffff161461061e576040517f08c379a000000000000000000000000000000000000000000000000000000000815260040161061590610f65565b60405180910390fd5b6001600360006101000a81548160ff021916908315150217905550565b6002818154811061064b57600080fd5b906000526020600020906003020160009150905080600001549080600101805461067490611135565b80601f01602080910402602001604051908101604052809291908181526020018280546106a090611135565b80156106ed5780601f106106c2576101008083540402835291602001916106ed565b820191906000526020600020905b8154815290600101906020018083116106d057829003601f168201915b5050505050908060020154905083565b60008054906101000a900473ffffffffffffffffffffffffffffffffffffffff1673ffffffffffffffffffffffffffffffffffffffff163373ffffffffffffffffffffffffffffffffffffffff161461078b576040517f08c379a000000000000000000000000000000000000000000000000000000000815260040161078290610f65565b60405180910390fd5b600160008273ffffffffffffffffffffffffffffffffffffffff1673ffffffffffffffffffffffffffffffffffffffff16815260200190815260200160002060020160009054906101000a900460ff161561081b576040517f08c379a000000000000000000000000000000000000000000000000000000000815260040161081290610f25565b60405180910390fd5b60018060008373ffffffffffffffffffffffffffffffffffffffff1673ffffffffffffffffffffffffffffffffffffffff16815260200190815260200160002060020160006101000a81548160ff0219169083151502179055507fb6be2187d059cc2a55fe29e0e503b566e1e0f8c8780096e185429350acffd3dd816040516108a49190610e4d565b60405180910390a150565b600360009054906101000a900460ff1681565b60016020528060005260406000206000915090508060000160009054906101000a900460ff16908060010154908060020160009054906101000a900460ff16905083565b60008054906101000a900473ffffffffffffffffffffffffffffffffffffffff1673ffffffffffffffffffffffffffffffffffffffff163373ffffffffffffffffffffffffffffffffffffffff1614610994576040517f08c379a000000000000000000000000000000000000000000000000000000000815260040161098b90610f65565b60405180910390fd5b6000600360006101000a81548160ff021916908315150217905550565b6109b9610a6e565b600160008373ffffffffffffffffffffffffffffffffffffffff1673ffffffffffffffffffffffffffffffffffffffff1681526020019081526020016000206040518060600160405290816000820160009054906101000a900460ff16151515158152602001600182015481526020016002820160009054906101000a900460ff1615151515815250509050919050565b60008054906101000a900473ffffffffffffffffffffffffffffffffffffffff1681565b6040518060600160405280600015158152602001600081526020016000151581525090565b600081359050610aa2816111d6565b92915050565b600081359050610ab7816111ed565b92915050565b600060208284031215610acf57600080fd5b6000610add84828501610a93565b91505092915050565b600060208284031215610af857600080fd5b6000610b0684828501610aa8565b91505092915050565b6000610b1b8383610d9d565b905092915050565b610b2c816110ba565b82525050565b6000610b3d8261100e565b610b478185611031565b935083602082028501610b5985610ffe565b8060005b85811015610b955784840389528151610b768582610b0f565b9450610b8183611024565b925060208a01995050600181019050610b5d565b50829750879550505050505092915050565b610bb0816110cc565b82525050565b610bbf816110cc565b82525050565b6000610bd082611019565b610bda8185611042565b9350610bea818560208601611102565b610bf3816111c5565b840191505092915050565b6000610c0982611019565b610c138185611053565b9350610c23818560208601611102565b610c2c816111c5565b840191505092915050565b6000610c44601a83611053565b91507f566f74696e6720686173206e6f742073746172746564207965740000000000006000830152602082019050919050565b6000610c84601b83611053565b91507f566f74657220697320616c7265616479207265676973746572656400000000006000830152602082019050919050565b6000610cc4601e83611053565b91507f596f7520617265206e6f742061207265676973746572656420766f74657200006000830152602082019050919050565b6000610d04602183611053565b91507f4f6e6c792061646d696e2063616e2063616c6c20746869732066756e6374696f60008301527f6e000000000000000000000000000000000000000000000000000000000000006020830152604082019050919050565b6000610d6a601683611053565b91507f596f75206861766520616c726561647920766f746564000000000000000000006000830152602082019050919050565b6000606083016000830151610db56000860182610e2f565b5060208301518482036020860152610dcd8282610bc5565b9150506040830151610de26040860182610e2f565b508091505092915050565b606082016000820151610e036000850182610ba7565b506020820151610e166020850182610e2f565b506040820151610e296040850182610ba7565b50505050565b610e38816110f8565b82525050565b610e47816110f8565b82525050565b6000602082019050610e626000830184610b23565b92915050565b6000604082019050610e7d6000830185610b23565b610e8a6020830184610e3e565b9392505050565b60006020820190508181036000830152610eab8184610b32565b905092915050565b6000602082019050610ec86000830184610bb6565b92915050565b6000606082019050610ee36000830186610bb6565b610ef06020830185610e3e565b610efd6040830184610bb6565b949350505050565b60006020820190508181036000830152610f1e81610c37565b9050919050565b60006020820190508181036000830152610f3e81610c77565b9050919050565b60006020820190508181036000830152610f5e81610cb7565b9050919050565b60006020820190508181036000830152610f7e81610cf7565b9050919050565b60006020820190508181036000830152610f9e81610d5d565b9050919050565b6000606082019050610fba6000830184610ded565b92915050565b6000606082019050610fd56000830186610e3e565b8181036020830152610fe78185610bfe565b9050610ff66040830184610e3e565b949350505050565b6000819050602082019050919050565b600081519050919050565b600081519050919050565b6000602082019050919050565b600082825260208201905092915050565b600082825260208201905092915050565b600082825260208201905092915050565b600061106f826110f8565b915061107a836110f8565b9250827fffffffffffffffffffffffffffffffffffffffffffffffffffffffffffffffff038211156110af576110ae611167565b5b828201905092915050565b60006110c5826110d8565b9050919050565b60008115159050919050565b600073ffffffffffffffffffffffffffffffffffffffff82169050919050565b6000819050919050565b60005b83811015611120578082015181840152602081019050611105565b8381111561112f576000848401525b50505050565b6000600282049050600182168061114d57607f821691505b6020821081141561116157611160611196565b5b50919050565b7f4e487b7100000000000000000000000000000000000000000000000000000000600052601160045260246000fd5b7f4e487b7100000000000000000000000000000000000000000000000000000000600052602260045260246000fd5b6000601f19601f8301169050919050565b6111df816110ba565b81146111ea57600080fd5b50565b6111f6816110f8565b811461120157600080fd5b5056fea264697066735822122003ca07beb53e2e243c07e6d5667db86e3b144954fe505022e1442f432ddac0be64736f6c63430008000033",
  "immutableReferences": {},
  "source": "// SPDX-License-Identifier: MIT\npragma solidity ^0.8.0;\n\ncontract Voting {\n    struct Voter {\n        bool voted;\n        uint vote;\n        bool isRegistered;\n    }\n\n    struct Candidate {\n        uint id;\n        string name;\n        uint voteCount;\n    }\n\n    address public admin;\n    mapping(address => Voter) public voters;\n    Candidate[] public candidates;\n    bool public votingStarted;\n\n    event VoterRegistered(address voter);\n    event VoteCast(address voter, uint candidateId);\n\n    constructor(string[] memory candidateNames) {\n        admin = msg.sender;\n        for (uint i = 0; i < candidateNames.length; i++) {\n            candidates.push(Candidate({\n                id: i,\n                name: candidateNames[i],\n                voteCount: 0\n            }));\n        }\n    }\n\n    modifier onlyAdmin() {\n        require(msg.sender == admin, \"Only admin can call this function\");\n        _;\n    }\n\n    modifier hasNotVoted() {\n        require(!voters[msg.sender].voted, \"You have already voted\");\n        _;\n    }\n\n    modifier isRegisteredVoter() {\n        require(voters[msg.sender].isRegistered, \"You are not a registered voter\");\n        _;\n    }\n\n    function registerVoter(address voter) public onlyAdmin {\n        require(!voters[voter].isRegistered, \"Voter is already registered\");\n        voters[voter].isRegistered = true;\n        emit VoterRegistered(voter);\n    }\n\n    function startVoting() public onlyAdmin {\n        votingStarted = true;\n    }\n    function endVoting() public onlyAdmin {\n        votingStarted = false;\n    }\n\n    function vote(uint candidateId) public isRegisteredVoter hasNotVoted {\n        require(votingStarted, \"Voting has not started yet\");\n        voters[msg.sender].voted = true;\n        voters[msg.sender].vote = candidateId;\n        candidates[candidateId].voteCount += 1;\n        emit VoteCast(msg.sender, candidateId);\n    }\n\n    function getCandidates() public view returns (Candidate[] memory) {\n        return candidates;\n    }\n\n    function getVoter(address voter) public view returns (Voter memory) {\n        return voters[voter];\n    }\n}\n",
  "sourcePath": "/Users/apple/PycharmProjects/VoteX/contracts/Voting.sol",
  "compiler": {
    "name": "solc",
    "version": "0.8.0+commit.c7dfd78e.Emscripten.clang"
  },
  "schemaVersion": "3.4.16",
  "updatedAt": "2024-06-14T21:03:15.067Z",
  "networkType": "ethereum",
  "devdoc": {
    "kind": "dev",
    "methods": {},
    "version": 1
  },
  "userdoc": {
    "kind": "user",
    "methods": {},
    "version": 1
  }
}